{
  "_format": "hh-sol-artifact-1",
  "contractName": "Lottery",
  "sourceName": "contracts/Lottery.sol",
  "abi": [
    {
      "inputs": [],
      "stateMutability": "nonpayable",
      "type": "constructor"
    },
    {
      "inputs": [],
      "name": "enter",
      "outputs": [],
      "stateMutability": "payable",
      "type": "function"
    },
    {
      "inputs": [],
      "name": "getBalance",
      "outputs": [
        {
          "internalType": "uint256",
          "name": "",
          "type": "uint256"
        }
      ],
      "stateMutability": "view",
      "type": "function"
    },
    {
      "inputs": [],
      "name": "getLotteryHistoryLength",
      "outputs": [
        {
          "internalType": "uint256",
          "name": "",
          "type": "uint256"
        }
      ],
      "stateMutability": "view",
      "type": "function"
    },
    {
      "inputs": [],
      "name": "getPlayers",
      "outputs": [
        {
          "internalType": "address payable[]",
          "name": "",
          "type": "address[]"
        }
      ],
      "stateMutability": "view",
      "type": "function"
    },
    {
      "inputs": [
        {
          "internalType": "uint256",
          "name": "index",
          "type": "uint256"
        }
      ],
      "name": "getWinnerByLottery",
      "outputs": [
        {
          "internalType": "address payable",
          "name": "",
          "type": "address"
        }
      ],
      "stateMutability": "view",
      "type": "function"
    },
    {
      "inputs": [
        {
          "internalType": "uint256",
          "name": "",
          "type": "uint256"
        }
      ],
      "name": "lotteryHistory",
      "outputs": [
        {
          "internalType": "address payable",
          "name": "",
          "type": "address"
        }
      ],
      "stateMutability": "view",
      "type": "function"
    },
    {
      "inputs": [],
      "name": "owner",
      "outputs": [
        {
          "internalType": "address",
          "name": "",
          "type": "address"
        }
      ],
      "stateMutability": "view",
      "type": "function"
    },
    {
      "inputs": [],
      "name": "pickWinner",
      "outputs": [],
      "stateMutability": "nonpayable",
      "type": "function"
    },
    {
      "inputs": [
        {
          "internalType": "uint256",
          "name": "",
          "type": "uint256"
        }
      ],
      "name": "players",
      "outputs": [
        {
          "internalType": "address payable",
          "name": "",
          "type": "address"
        }
      ],
      "stateMutability": "view",
      "type": "function"
    }
  ],
  "bytecode": "0x608060405234801561001057600080fd5b50336000806101000a81548173ffffffffffffffffffffffffffffffffffffffff021916908373ffffffffffffffffffffffffffffffffffffffff160217905550610b0e806100606000396000f3fe6080604052600436106100865760003560e01c80638b5b9ccc116100595780638b5b9ccc146101475780638da5cb5b14610172578063e236bfaf1461019d578063e97dcb62146101c8578063f71d96cb146101d257610086565b806312065fe01461008b578063281d098d146100b65780635d495aea146100f35780636d6fe2301461010a575b600080fd5b34801561009757600080fd5b506100a061020f565b6040516100ad9190610731565b60405180910390f35b3480156100c257600080fd5b506100dd60048036038101906100d8919061077d565b610217565b6040516100ea91906107eb565b60405180910390f35b3480156100ff57600080fd5b5061010861025f565b005b34801561011657600080fd5b50610131600480360381019061012c919061077d565b61045c565b60405161013e91906107eb565b60405180910390f35b34801561015357600080fd5b5061015c61049b565b60405161016991906108c4565b60405180910390f35b34801561017e57600080fd5b50610187610529565b6040516101949190610907565b60405180910390f35b3480156101a957600080fd5b506101b261054d565b6040516101bf9190610731565b60405180910390f35b6101d0610566565b005b3480156101de57600080fd5b506101f960048036038101906101f4919061077d565b6105de565b60405161020691906107eb565b60405180910390f35b600047905090565b60006002828154811061022d5761022c610922565b5b9060005260206000200160009054906101000a900473ffffffffffffffffffffffffffffffffffffffff169050919050565b60008054906101000a900473ffffffffffffffffffffffffffffffffffffffff1673ffffffffffffffffffffffffffffffffffffffff163373ffffffffffffffffffffffffffffffffffffffff16146102b757600080fd5b60006001805490506102c761061d565b6102d19190610980565b9050600181815481106102e7576102e6610922565b5b9060005260206000200160009054906101000a900473ffffffffffffffffffffffffffffffffffffffff1673ffffffffffffffffffffffffffffffffffffffff166108fc479081150290604051600060405180830381858888f19350505050158015610357573d6000803e3d6000fd5b5060026001828154811061036e5761036d610922565b5b9060005260206000200160009054906101000a900473ffffffffffffffffffffffffffffffffffffffff169080600181540180825580915050600190039060005260206000200160009091909190916101000a81548173ffffffffffffffffffffffffffffffffffffffff021916908373ffffffffffffffffffffffffffffffffffffffff160217905550600067ffffffffffffffff811115610414576104136109b1565b5b6040519080825280602002602001820160405280156104425781602001602082028036833780820191505090505b5060019080519060200190610458929190610671565b5050565b6002818154811061046c57600080fd5b906000526020600020016000915054906101000a900473ffffffffffffffffffffffffffffffffffffffff1681565b6060600180548060200260200160405190810160405280929190818152602001828054801561051f57602002820191906000526020600020905b8160009054906101000a900473ffffffffffffffffffffffffffffffffffffffff1673ffffffffffffffffffffffffffffffffffffffff16815260200190600101908083116104d5575b5050505050905090565b60008054906101000a900473ffffffffffffffffffffffffffffffffffffffff1681565b600060016002805490506105619190610a0f565b905090565b662386f26fc10000341161057957600080fd5b6001339080600181540180825580915050600190039060005260206000200160009091909190916101000a81548173ffffffffffffffffffffffffffffffffffffffff021916908373ffffffffffffffffffffffffffffffffffffffff160217905550565b600181815481106105ee57600080fd5b906000526020600020016000915054906101000a900473ffffffffffffffffffffffffffffffffffffffff1681565b60008060009054906101000a900473ffffffffffffffffffffffffffffffffffffffff1642604051602001610653929190610aac565b6040516020818303038152906040528051906020012060001c905090565b8280548282559060005260206000209081019282156106ea579160200282015b828111156106e95782518260006101000a81548173ffffffffffffffffffffffffffffffffffffffff021916908373ffffffffffffffffffffffffffffffffffffffff16021790555091602001919060010190610691565b5b5090506106f791906106fb565b5090565b5b808211156107145760008160009055506001016106fc565b5090565b6000819050919050565b61072b81610718565b82525050565b60006020820190506107466000830184610722565b92915050565b600080fd5b61075a81610718565b811461076557600080fd5b50565b60008135905061077781610751565b92915050565b6000602082840312156107935761079261074c565b5b60006107a184828501610768565b91505092915050565b600073ffffffffffffffffffffffffffffffffffffffff82169050919050565b60006107d5826107aa565b9050919050565b6107e5816107ca565b82525050565b600060208201905061080060008301846107dc565b92915050565b600081519050919050565b600082825260208201905092915050565b6000819050602082019050919050565b61083b816107ca565b82525050565b600061084d8383610832565b60208301905092915050565b6000602082019050919050565b600061087182610806565b61087b8185610811565b935061088683610822565b8060005b838110156108b757815161089e8882610841565b97506108a983610859565b92505060018101905061088a565b5085935050505092915050565b600060208201905081810360008301526108de8184610866565b905092915050565b60006108f1826107aa565b9050919050565b610901816108e6565b82525050565b600060208201905061091c60008301846108f8565b92915050565b7f4e487b7100000000000000000000000000000000000000000000000000000000600052603260045260246000fd5b7f4e487b7100000000000000000000000000000000000000000000000000000000600052601260045260246000fd5b600061098b82610718565b915061099683610718565b9250826109a6576109a5610951565b5b828206905092915050565b7f4e487b7100000000000000000000000000000000000000000000000000000000600052604160045260246000fd5b7f4e487b7100000000000000000000000000000000000000000000000000000000600052601160045260246000fd5b6000610a1a82610718565b9150610a2583610718565b9250828203905081811115610a3d57610a3c6109e0565b5b92915050565b60008160601b9050919050565b6000610a5b82610a43565b9050919050565b6000610a6d82610a50565b9050919050565b610a85610a80826108e6565b610a62565b82525050565b6000819050919050565b610aa6610aa182610718565b610a8b565b82525050565b6000610ab88285610a74565b601482019150610ac88284610a95565b602082019150819050939250505056fea2646970667358221220f76f646e492044bd6364af118fb18c96ceb35b4df79b4ba05a38f81900ed460564736f6c63430008110033",
  "linkReferences": {},
  "deployedLinkReferences": {}
}