{
    "_format": "hh-sol-artifact-1",
    "contractName": "Ballot",
    "sourceName": "contracts/Voting.sol",
    "abi": [
        {
            "inputs": [
                {
                    "internalType": "uint256",
                    "name": "_endTime",
                    "type": "uint256"
                }
            ],
            "stateMutability": "nonpayable",
            "type": "constructor"
        },
        {
            "anonymous": false,
            "inputs": [
                {
                    "indexed": true,
                    "internalType": "uint256",
                    "name": "candidateIndex",
                    "type": "uint256"
                }
            ],
            "name": "AddCandidate",
            "type": "event"
        },
        {
            "anonymous": false,
            "inputs": [],
            "name": "Reset",
            "type": "event"
        },
        {
            "anonymous": false,
            "inputs": [
                {
                    "indexed": true,
                    "internalType": "address",
                    "name": "voter",
                    "type": "address"
                },
                {
                    "indexed": true,
                    "internalType": "uint256",
                    "name": "candidateIndex",
                    "type": "uint256"
                }
            ],
            "name": "Vote",
            "type": "event"
        },
        {
            "inputs": [
                {
                    "internalType": "uint256",
                    "name": "",
                    "type": "uint256"
                }
            ],
            "name": "candidates",
            "outputs": [
                {
                    "internalType": "string",
                    "name": "name",
                    "type": "string"
                },
                {
                    "internalType": "address",
                    "name": "candidateAddress",
                    "type": "address"
                }
            ],
            "stateMutability": "view",
            "type": "function"
        },
        {
            "inputs": [],
            "name": "endTime",
            "outputs": [
                {
                    "internalType": "uint256",
                    "name": "",
                    "type": "uint256"
                }
            ],
            "stateMutability": "view",
            "type": "function"
        },
        {
            "inputs": [],
            "name": "getResults",
            "outputs": [
                {
                    "components": [
                        {
                            "internalType": "string",
                            "name": "name",
                            "type": "string"
                        },
                        {
                            "internalType": "uint256",
                            "name": "voteCount",
                            "type": "uint256"
                        },
                        {
                            "internalType": "address",
                            "name": "candidateAddress",
                            "type": "address"
                        }
                    ],
                    "internalType": "struct Results[]",
                    "name": "",
                    "type": "tuple[]"
                }
            ],
            "stateMutability": "view",
            "type": "function"
        },
        {
            "inputs": [],
            "name": "isEnded",
            "outputs": [
                {
                    "internalType": "bool",
                    "name": "",
                    "type": "bool"
                }
            ],
            "stateMutability": "view",
            "type": "function"
        },
        {
            "inputs": [],
            "name": "owner",
            "outputs": [
                {
                    "internalType": "address",
                    "name": "",
                    "type": "address"
                }
            ],
            "stateMutability": "view",
            "type": "function"
        },
        {
            "inputs": [
                {
                    "internalType": "string",
                    "name": "_name",
                    "type": "string"
                }
            ],
            "name": "registerCandidate",
            "outputs": [],
            "stateMutability": "nonpayable",
            "type": "function"
        },
        {
            "inputs": [
                {
                    "internalType": "uint256",
                    "name": "_endTime",
                    "type": "uint256"
                }
            ],
            "name": "reset",
            "outputs": [],
            "stateMutability": "nonpayable",
            "type": "function"
        },
        {
            "inputs": [],
            "name": "startTime",
            "outputs": [
                {
                    "internalType": "uint256",
                    "name": "",
                    "type": "uint256"
                }
            ],
            "stateMutability": "view",
            "type": "function"
        },
        {
            "inputs": [],
            "name": "totalVotes",
            "outputs": [
                {
                    "internalType": "uint256",
                    "name": "",
                    "type": "uint256"
                }
            ],
            "stateMutability": "view",
            "type": "function"
        },
        {
            "inputs": [
                {
                    "internalType": "uint256",
                    "name": "candidateIndex",
                    "type": "uint256"
                }
            ],
            "name": "vote",
            "outputs": [],
            "stateMutability": "nonpayable",
            "type": "function"
        },
        {
            "inputs": [
                {
                    "internalType": "address",
                    "name": "",
                    "type": "address"
                }
            ],
            "name": "voterStatus",
            "outputs": [
                {
                    "internalType": "bool",
                    "name": "",
                    "type": "bool"
                }
            ],
            "stateMutability": "view",
            "type": "function"
        },
        {
            "inputs": [
                {
                    "internalType": "uint256",
                    "name": "",
                    "type": "uint256"
                }
            ],
            "name": "voters",
            "outputs": [
                {
                    "internalType": "address",
                    "name": "",
                    "type": "address"
                }
            ],
            "stateMutability": "view",
            "type": "function"
        },
        {
            "inputs": [
                {
                    "internalType": "address",
                    "name": "",
                    "type": "address"
                }
            ],
            "name": "votesReceived",
            "outputs": [
                {
                    "internalType": "uint256",
                    "name": "",
                    "type": "uint256"
                }
            ],
            "stateMutability": "view",
            "type": "function"
        }
    ],
    "bytecode": "0x60806040523480156200001157600080fd5b5060405162001bb738038062001bb78339818101604052810190620000379190620000e2565b33600560006101000a81548173ffffffffffffffffffffffffffffffffffffffff021916908373ffffffffffffffffffffffffffffffffffffffff160217905550600060048190555042600681905550804262000095919062000143565b600781905550506200017e565b600080fd5b6000819050919050565b620000bc81620000a7565b8114620000c857600080fd5b50565b600081519050620000dc81620000b1565b92915050565b600060208284031215620000fb57620000fa620000a2565b5b60006200010b84828501620000cb565b91505092915050565b7f4e487b7100000000000000000000000000000000000000000000000000000000600052601160045260246000fd5b60006200015082620000a7565b91506200015d83620000a7565b925082820190508082111562000178576200017762000114565b5b92915050565b611a29806200018e6000396000f3fe608060405234801561001057600080fd5b50600436106100cf5760003560e01c80634717f97c1161008c5780638da5cb5b116100665780638da5cb5b146102155780639eb88db614610233578063a4fd6f561461024f578063da58c7d91461026d576100cf565b80634717f97c146101a9578063576cc4f2146101c757806378e97925146101f7576100cf565b80630121b93f146100d45780630d15fd77146100f057806330c880c31461010e578063310bd74b1461013e5780633197cbb61461015a5780633477ee2e14610178575b600080fd5b6100ee60048036038101906100e99190610f3b565b61029d565b005b6100f86105ff565b6040516101059190610f77565b60405180910390f35b61012860048036038101906101239190610ff0565b610605565b6040516101359190610f77565b60405180910390f35b61015860048036038101906101539190610f3b565b61061d565b005b610162610881565b60405161016f9190610f77565b60405180910390f35b610192600480360381019061018d9190610f3b565b610887565b6040516101a09291906110bc565b60405180910390f35b6101b1610963565b6040516101be9190611266565b60405180910390f35b6101e160048036038101906101dc9190610ff0565b610bb0565b6040516101ee91906112a3565b60405180910390f35b6101ff610bd0565b60405161020c9190610f77565b60405180910390f35b61021d610bd6565b60405161022a91906112be565b60405180910390f35b61024d6004803603810190610248919061140e565b610bfc565b005b610257610d7f565b60405161026491906112a3565b60405180910390f35b61028760048036038101906102829190610f3b565b610d8b565b60405161029491906112be565b60405180910390f35b6102a5610d7f565b156102e5576040517f08c379a00000000000000000000000000000000000000000000000000000000081526004016102dc906114a3565b60405180910390fd5b600360003373ffffffffffffffffffffffffffffffffffffffff1673ffffffffffffffffffffffffffffffffffffffff16815260200190815260200160002060009054906101000a900460ff1615610372576040517f08c379a00000000000000000000000000000000000000000000000000000000081526004016103699061150f565b60405180910390fd5b60008054905081106103b9576040517f08c379a00000000000000000000000000000000000000000000000000000000081526004016103b09061157b565b60405180910390fd5b60001515600360003373ffffffffffffffffffffffffffffffffffffffff1673ffffffffffffffffffffffffffffffffffffffff16815260200190815260200160002060009054906101000a900460ff1615151461044c576040517f08c379a00000000000000000000000000000000000000000000000000000000081526004016104439061150f565b60405180910390fd5b600160008083815481106104635761046261159b565b5b906000526020600020906002020160010160009054906101000a900473ffffffffffffffffffffffffffffffffffffffff1673ffffffffffffffffffffffffffffffffffffffff1673ffffffffffffffffffffffffffffffffffffffff16815260200190815260200160002060008154809291906104e0906115f9565b91905055506001600360003373ffffffffffffffffffffffffffffffffffffffff1673ffffffffffffffffffffffffffffffffffffffff16815260200190815260200160002060006101000a81548160ff0219169083151502179055506002339080600181540180825580915050600190039060005260206000200160009091909190916101000a81548173ffffffffffffffffffffffffffffffffffffffff021916908373ffffffffffffffffffffffffffffffffffffffff160217905550600460008154809291906105b3906115f9565b9190505550803373ffffffffffffffffffffffffffffffffffffffff167ff668ead05c744b9178e571d2edb452e72baf6529c8d72160e64e59b50d865bd060405160405180910390a350565b60045481565b60016020528060005260406000206000915090505481565b600560009054906101000a900473ffffffffffffffffffffffffffffffffffffffff1673ffffffffffffffffffffffffffffffffffffffff163373ffffffffffffffffffffffffffffffffffffffff16146106ad576040517f08c379a00000000000000000000000000000000000000000000000000000000081526004016106a49061168d565b60405180910390fd5b60005b600080549050811015610759576000600160008084815481106106d6576106d561159b565b5b906000526020600020906002020160010160009054906101000a900473ffffffffffffffffffffffffffffffffffffffff1673ffffffffffffffffffffffffffffffffffffffff1673ffffffffffffffffffffffffffffffffffffffff168152602001908152602001600020819055508080610751906115f9565b9150506106b0565b506000806107679190610dca565b60005b60028054905081101561082057600060036000600284815481106107915761079061159b565b5b9060005260206000200160009054906101000a900473ffffffffffffffffffffffffffffffffffffffff1673ffffffffffffffffffffffffffffffffffffffff1673ffffffffffffffffffffffffffffffffffffffff16815260200190815260200160002060006101000a81548160ff0219169083151502179055508080610818906115f9565b91505061076a565b506002600061082f9190610dee565b6000600481905550426006819055508060065461084c91906116ad565b6007819055507f6423db340205c829eeb91151b1c5d1dc6d7a2b8708b1621494e89ba90c87081e60405160405180910390a150565b60075481565b6000818154811061089757600080fd5b90600052602060002090600202016000915090508060000180546108ba90611710565b80601f01602080910402602001604051908101604052809291908181526020018280546108e690611710565b80156109335780601f1061090857610100808354040283529160200191610933565b820191906000526020600020905b81548152906001019060200180831161091657829003601f168201915b5050505050908060010160009054906101000a900473ffffffffffffffffffffffffffffffffffffffff16905082565b60606000808054905067ffffffffffffffff811115610985576109846112e3565b5b6040519080825280602002602001820160405280156109be57816020015b6109ab610e0f565b8152602001906001900390816109a35790505b50905060005b600080549050811015610ba8576040518060600160405280600083815481106109f0576109ef61159b565b5b90600052602060002090600202016000018054610a0c90611710565b80601f0160208091040260200160405190810160405280929190818152602001828054610a3890611710565b8015610a855780601f10610a5a57610100808354040283529160200191610a85565b820191906000526020600020905b815481529060010190602001808311610a6857829003601f168201915b5050505050815260200160016000808581548110610aa657610aa561159b565b5b906000526020600020906002020160010160009054906101000a900473ffffffffffffffffffffffffffffffffffffffff1673ffffffffffffffffffffffffffffffffffffffff1673ffffffffffffffffffffffffffffffffffffffff16815260200190815260200160002054815260200160008381548110610b2c57610b2b61159b565b5b906000526020600020906002020160010160009054906101000a900473ffffffffffffffffffffffffffffffffffffffff1673ffffffffffffffffffffffffffffffffffffffff16815250828281518110610b8a57610b8961159b565b5b60200260200101819052508080610ba0906115f9565b9150506109c4565b508091505090565b60036020528060005260406000206000915054906101000a900460ff1681565b60065481565b600560009054906101000a900473ffffffffffffffffffffffffffffffffffffffff1681565b610c04610d7f565b15610c44576040517f08c379a0000000000000000000000000000000000000000000000000000000008152600401610c3b906114a3565b60405180910390fd5b600060405180604001604052808381526020013373ffffffffffffffffffffffffffffffffffffffff1681525090806001815401808255809150506001900390600052602060002090600202016000909190919091506000820151816000019081610caf91906118ed565b5060208201518160010160006101000a81548173ffffffffffffffffffffffffffffffffffffffff021916908373ffffffffffffffffffffffffffffffffffffffff16021790555050506000600160003373ffffffffffffffffffffffffffffffffffffffff1673ffffffffffffffffffffffffffffffffffffffff168152602001908152602001600020819055506001600080549050610d5091906119bf565b7f777fd7cc2d56d24ad499059c7477d5721244e36ce46e0dac54a339c3578906d860405160405180910390a250565b60006007544211905090565b60028181548110610d9b57600080fd5b906000526020600020016000915054906101000a900473ffffffffffffffffffffffffffffffffffffffff1681565b5080546000825560020290600052602060002090810190610deb9190610e46565b50565b5080546000825590600052602060002090810190610e0c9190610e94565b50565b60405180606001604052806060815260200160008152602001600073ffffffffffffffffffffffffffffffffffffffff1681525090565b5b80821115610e905760008082016000610e609190610eb1565b6001820160006101000a81549073ffffffffffffffffffffffffffffffffffffffff021916905550600201610e47565b5090565b5b80821115610ead576000816000905550600101610e95565b5090565b508054610ebd90611710565b6000825580601f10610ecf5750610eee565b601f016020900490600052602060002090810190610eed9190610e94565b5b50565b6000604051905090565b600080fd5b600080fd5b6000819050919050565b610f1881610f05565b8114610f2357600080fd5b50565b600081359050610f3581610f0f565b92915050565b600060208284031215610f5157610f50610efb565b5b6000610f5f84828501610f26565b91505092915050565b610f7181610f05565b82525050565b6000602082019050610f8c6000830184610f68565b92915050565b600073ffffffffffffffffffffffffffffffffffffffff82169050919050565b6000610fbd82610f92565b9050919050565b610fcd81610fb2565b8114610fd857600080fd5b50565b600081359050610fea81610fc4565b92915050565b60006020828403121561100657611005610efb565b5b600061101484828501610fdb565b91505092915050565b600081519050919050565b600082825260208201905092915050565b60005b8381101561105757808201518184015260208101905061103c565b60008484015250505050565b6000601f19601f8301169050919050565b600061107f8261101d565b6110898185611028565b9350611099818560208601611039565b6110a281611063565b840191505092915050565b6110b681610fb2565b82525050565b600060408201905081810360008301526110d68185611074565b90506110e560208301846110ad565b9392505050565b600081519050919050565b600082825260208201905092915050565b6000819050602082019050919050565b600082825260208201905092915050565b60006111348261101d565b61113e8185611118565b935061114e818560208601611039565b61115781611063565b840191505092915050565b61116b81610f05565b82525050565b61117a81610fb2565b82525050565b6000606083016000830151848203600086015261119d8282611129565b91505060208301516111b26020860182611162565b5060408301516111c56040860182611171565b508091505092915050565b60006111dc8383611180565b905092915050565b6000602082019050919050565b60006111fc826110ec565b61120681856110f7565b93508360208202850161121885611108565b8060005b85811015611254578484038952815161123585826111d0565b9450611240836111e4565b925060208a0199505060018101905061121c565b50829750879550505050505092915050565b6000602082019050818103600083015261128081846111f1565b905092915050565b60008115159050919050565b61129d81611288565b82525050565b60006020820190506112b86000830184611294565b92915050565b60006020820190506112d360008301846110ad565b92915050565b600080fd5b600080fd5b7f4e487b7100000000000000000000000000000000000000000000000000000000600052604160045260246000fd5b61131b82611063565b810181811067ffffffffffffffff8211171561133a576113396112e3565b5b80604052505050565b600061134d610ef1565b90506113598282611312565b919050565b600067ffffffffffffffff821115611379576113786112e3565b5b61138282611063565b9050602081019050919050565b82818337600083830152505050565b60006113b16113ac8461135e565b611343565b9050828152602081018484840111156113cd576113cc6112de565b5b6113d884828561138f565b509392505050565b600082601f8301126113f5576113f46112d9565b5b813561140584826020860161139e565b91505092915050565b60006020828403121561142457611423610efb565b5b600082013567ffffffffffffffff81111561144257611441610f00565b5b61144e848285016113e0565b91505092915050565b7f566f74696e6720697320656e6465640000000000000000000000000000000000600082015250565b600061148d600f83611028565b915061149882611457565b602082019050919050565b600060208201905081810360008301526114bc81611480565b9050919050565b7f416c726561647920766f74656400000000000000000000000000000000000000600082015250565b60006114f9600d83611028565b9150611504826114c3565b602082019050919050565b60006020820190508181036000830152611528816114ec565b9050919050565b7f496e76616c69642063616e64696461746520696e646578000000000000000000600082015250565b6000611565601783611028565b91506115708261152f565b602082019050919050565b6000602082019050818103600083015261159481611558565b9050919050565b7f4e487b7100000000000000000000000000000000000000000000000000000000600052603260045260246000fd5b7f4e487b7100000000000000000000000000000000000000000000000000000000600052601160045260246000fd5b600061160482610f05565b91507fffffffffffffffffffffffffffffffffffffffffffffffffffffffffffffffff8203611636576116356115ca565b5b600182019050919050565b7f4f6e6c79206f776e65722063616e2072657365742074686520766f74696e6700600082015250565b6000611677601f83611028565b915061168282611641565b602082019050919050565b600060208201905081810360008301526116a68161166a565b9050919050565b60006116b882610f05565b91506116c383610f05565b92508282019050808211156116db576116da6115ca565b5b92915050565b7f4e487b7100000000000000000000000000000000000000000000000000000000600052602260045260246000fd5b6000600282049050600182168061172857607f821691505b60208210810361173b5761173a6116e1565b5b50919050565b60008190508160005260206000209050919050565b60006020601f8301049050919050565b600082821b905092915050565b6000600883026117a37fffffffffffffffffffffffffffffffffffffffffffffffffffffffffffffffff82611766565b6117ad8683611766565b95508019841693508086168417925050509392505050565b6000819050919050565b60006117ea6117e56117e084610f05565b6117c5565b610f05565b9050919050565b6000819050919050565b611804836117cf565b611818611810826117f1565b848454611773565b825550505050565b600090565b61182d611820565b6118388184846117fb565b505050565b5b8181101561185c57611851600082611825565b60018101905061183e565b5050565b601f8211156118a15761187281611741565b61187b84611756565b8101602085101561188a578190505b61189e61189685611756565b83018261183d565b50505b505050565b600082821c905092915050565b60006118c4600019846008026118a6565b1980831691505092915050565b60006118dd83836118b3565b9150826002028217905092915050565b6118f68261101d565b67ffffffffffffffff81111561190f5761190e6112e3565b5b6119198254611710565b611924828285611860565b600060209050601f8311600181146119575760008415611945578287015190505b61194f85826118d1565b8655506119b7565b601f19841661196586611741565b60005b8281101561198d57848901518255600182019150602085019450602081019050611968565b868310156119aa57848901516119a6601f8916826118b3565b8355505b6001600288020188555050505b505050505050565b60006119ca82610f05565b91506119d583610f05565b92508282039050818111156119ed576119ec6115ca565b5b9291505056fea26469706673582212200dde92fa11d607163817499f1c0e8dd29adad6f319b8c4fbd982c337ee3c438b64736f6c63430008110033",
    "linkReferences": {},
    "deployedLinkReferences": {}
}